:100000000C9434000C943E000C943E000C943E0082
:100010000C943E000C943E000C943E000C943E0068
:100020000C943E000C943E000C943E000C943E0058
:100030000C943E000C943E000C943E000C943E0048
:100040000C943E000C943E000C943E000C943E0038
:100050000C943E000C943E000C943E000C943E0028
:100060000C943E000C943E0011241FBECFEFD8E04C
:10007000DEBFCDBF0E9440000C9473000C940000C2
:10008000FFCFEAE7F0E084E88083ACE7B0E08C9152
:1000900080648C93808180688083089590917C0037
:1000A000907F90937C0090917C00982B90937C00A3
:1000B00080E190E020E030E040917A00406440939D
:1000C0007A0040917A0046FDFCCF40917800509133
:1000D0007900240F351F019779F7369527953695C6
:0A00E0002795C9010895F894FFCF99
:00000001FF
